{
  "contractName": "GoodsList",
  "abi": [
    {
      "constant": true,
      "inputs": [],
      "name": "goodsCount",
      "outputs": [
        {
          "name": "",
          "type": "uint256"
        }
      ],
      "payable": false,
      "stateMutability": "view",
      "type": "function",
      "signature": "0x1417ff7e"
    },
    {
      "constant": true,
      "inputs": [
        {
          "name": "",
          "type": "uint256"
        }
      ],
      "name": "products",
      "outputs": [
        {
          "name": "id",
          "type": "uint256"
        },
        {
          "name": "name",
          "type": "string"
        },
        {
          "name": "category",
          "type": "string"
        },
        {
          "name": "shipment_type",
          "type": "string"
        },
        {
          "name": "shipment_date",
          "type": "uint256"
        },
        {
          "name": "shipment_status",
          "type": "string"
        },
        {
          "name": "condition",
          "type": "string"
        },
        {
          "name": "stock",
          "type": "uint256"
        },
        {
          "name": "cost_per_item",
          "type": "uint256"
        }
      ],
      "payable": false,
      "stateMutability": "view",
      "type": "function",
      "signature": "0x7acc0b20"
    },
    {
      "inputs": [],
      "payable": false,
      "stateMutability": "nonpayable",
      "type": "constructor",
      "signature": "constructor"
    },
    {
      "anonymous": false,
      "inputs": [
        {
          "indexed": false,
          "name": "id",
          "type": "uint256"
        },
        {
          "indexed": false,
          "name": "name",
          "type": "string"
        },
        {
          "indexed": false,
          "name": "category",
          "type": "string"
        },
        {
          "indexed": false,
          "name": "shipment_type",
          "type": "string"
        },
        {
          "indexed": false,
          "name": "shipment_date",
          "type": "uint256"
        },
        {
          "indexed": false,
          "name": "shipment_status",
          "type": "string"
        },
        {
          "indexed": false,
          "name": "condition",
          "type": "string"
        },
        {
          "indexed": false,
          "name": "stock",
          "type": "uint256"
        },
        {
          "indexed": false,
          "name": "cost_per_item",
          "type": "uint256"
        }
      ],
      "name": "ProductAdded",
      "type": "event",
      "signature": "0x99df3c87726953bbd7c5bf24ef949fc3ef48619a4f4aa35fc1b1bb99f51810a6"
    },
    {
      "anonymous": false,
      "inputs": [
        {
          "indexed": false,
          "name": "id",
          "type": "uint256"
        },
        {
          "indexed": false,
          "name": "status",
          "type": "string"
        },
        {
          "indexed": false,
          "name": "condition",
          "type": "string"
        },
        {
          "indexed": false,
          "name": "stock",
          "type": "uint256"
        }
      ],
      "name": "ProductStatusUpdated",
      "type": "event",
      "signature": "0x6b590af6f7aa4ae28c0481336e6420561056e6f3b4e6f47f5f77a59aea966564"
    },
    {
      "anonymous": false,
      "inputs": [
        {
          "indexed": false,
          "name": "id",
          "type": "uint256"
        },
        {
          "indexed": false,
          "name": "unit",
          "type": "uint256"
        },
        {
          "indexed": false,
          "name": "previousStock",
          "type": "uint256"
        }
      ],
      "name": "ProductStockUpdated",
      "type": "event",
      "signature": "0x420a24f336320dcd3746baf9372bc9fd6d0fda079dce3a3651ce95b1c1762b8e"
    },
    {
      "constant": false,
      "inputs": [
        {
          "name": "_name",
          "type": "string"
        },
        {
          "name": "_category",
          "type": "string"
        },
        {
          "name": "_shipment_type",
          "type": "string"
        },
        {
          "name": "_shipment_date",
          "type": "uint256"
        },
        {
          "name": "_cost_per_item",
          "type": "uint256"
        }
      ],
      "name": "addProduct",
      "outputs": [],
      "payable": false,
      "stateMutability": "nonpayable",
      "type": "function",
      "signature": "0x524a046e"
    },
    {
      "constant": false,
      "inputs": [
        {
          "name": "_id",
          "type": "uint256"
        },
        {
          "name": "_status",
          "type": "string"
        },
        {
          "name": "_condition",
          "type": "string"
        },
        {
          "name": "_stock",
          "type": "uint256"
        }
      ],
      "name": "updateShipmentStatus",
      "outputs": [],
      "payable": false,
      "stateMutability": "nonpayable",
      "type": "function",
      "signature": "0xa5a06b24"
    },
    {
      "constant": false,
      "inputs": [
        {
          "name": "_id",
          "type": "uint256"
        },
        {
          "name": "_unit",
          "type": "uint256"
        }
      ],
      "name": "addToStock",
      "outputs": [],
      "payable": false,
      "stateMutability": "nonpayable",
      "type": "function",
      "signature": "0xf988bf61"
    },
    {
      "constant": false,
      "inputs": [
        {
          "name": "_id",
          "type": "uint256"
        },
        {
          "name": "_unit",
          "type": "uint256"
        }
      ],
      "name": "removeFromStock",
      "outputs": [],
      "payable": false,
      "stateMutability": "nonpayable",
      "type": "function",
      "signature": "0x0d4f233b"
    }
  ],
  "bytecode": "0x6080604052600080553480156200001557600080fd5b50620000da6040805190810160405280600981526020017f50726f64756374203100000000000000000000000000000000000000000000008152506040805190810160405280600481526020017f466f6f64000000000000000000000000000000000000000000000000000000008152506040805190810160405280600b81526020017f416972206672656967687400000000000000000000000000000000000000000081525065017e24ed2c116048620000e0640100000000026401000000009004565b62000502565b600080546001908101808355604080516101208101825282815260208082018b81528284018b9052606083018a9052608083018990528351808501855260078082527f70656e64696e67000000000000000000000000000000000000000000000000008285015260a0850191909152845180860186529081527f756e6b6e6f776e000000000000000000000000000000000000000000000000008184015260c084015260e0830187905261010083018890529386528481529190942084518155915180519293620001ba939085019291909101906200045d565b5060408201518051620001d89160028401916020909101906200045d565b5060608201518051620001f69160038401916020909101906200045d565b506080820151600482015560a082015180516200021e9160058401916020909101906200045d565b5060c082015180516200023c9160068401916020909101906200045d565b5060e0820151816007015561010082015181600801559050507f99df3c87726953bbd7c5bf24ef949fc3ef48619a4f4aa35fc1b1bb99f51810a66000548686868660008760405180888152602001806020018060200180602001878152602001806020018060200188815260200187815260200186810386528c818151815260200191508051906020019080838360005b83811015620002e7578181015183820152602001620002cd565b50505050905090810190601f168015620003155780820380516001836020036101000a031916815260200191505b5086810385528b5181528b516020918201918d019080838360005b838110156200034a57818101518382015260200162000330565b50505050905090810190601f168015620003785780820380516001836020036101000a031916815260200191505b5086810384528a5181528a516020918201918c019080838360005b83811015620003ad57818101518382015260200162000393565b50505050905090810190601f168015620003db5780820380516001836020036101000a031916815260200191505b509586039182905260078087527f70656e64696e670000000000000000000000000000000000000000000000000060208801526040928301909152818601527f756e6b6e6f776e00000000000000000000000000000000000000000000000000606086015251938490036080019a509298505050505050505050a15050505050565b828054600181600116156101000203166002900490600052602060002090601f016020900481019282601f10620004a057805160ff1916838001178555620004d0565b82800160010185558215620004d0579182015b82811115620004d0578251825591602001919060010190620004b3565b50620004de929150620004e2565b5090565b620004ff91905b80821115620004de5760008155600101620004e9565b90565b611aa480620005126000396000f3fe6080604052600436106100775763ffffffff7c01000000000000000000000000000000000000000000000000000000006000350416630d4f233b811461007c5780631417ff7e146100ae578063524a046e146100d55780637acc0b201461029b578063a5a06b24146104f1578063f988bf6114610634575b600080fd5b34801561008857600080fd5b506100ac6004803603604081101561009f57600080fd5b5080359060200135610664565b005b3480156100ba57600080fd5b506100c3610aa3565b60408051918252519081900360200190f35b3480156100e157600080fd5b506100ac600480360360a08110156100f857600080fd5b81019060208101813564010000000081111561011357600080fd5b82018360208201111561012557600080fd5b8035906020019184600183028401116401000000008311171561014757600080fd5b91908080601f016020809104026020016040519081016040528093929190818152602001838380828437600092019190915250929594936020810193503591505064010000000081111561019a57600080fd5b8201836020820111156101ac57600080fd5b803590602001918460018302840111640100000000831117156101ce57600080fd5b91908080601f016020809104026020016040519081016040528093929190818152602001838380828437600092019190915250929594936020810193503591505064010000000081111561022157600080fd5b82018360208201111561023357600080fd5b8035906020019184600183028401116401000000008311171561025557600080fd5b91908080601f0160208091040260200160405190810160405280939291908181526020018383808284376000920191909152509295505082359350505060200135610aa9565b3480156102a757600080fd5b506102c5600480360360208110156102be57600080fd5b5035610e13565b604051808a8152602001806020018060200180602001898152602001806020018060200188815260200187815260200186810386528e818151815260200191508051906020019080838360005b8381101561032a578181015183820152602001610312565b50505050905090810190601f1680156103575780820380516001836020036101000a031916815260200191505b5086810385528d5181528d516020918201918f019080838360005b8381101561038a578181015183820152602001610372565b50505050905090810190601f1680156103b75780820380516001836020036101000a031916815260200191505b5086810384528c5181528c516020918201918e019080838360005b838110156103ea5781810151838201526020016103d2565b50505050905090810190601f1680156104175780820380516001836020036101000a031916815260200191505b5086810383528a5181528a516020918201918c019080838360005b8381101561044a578181015183820152602001610432565b50505050905090810190601f1680156104775780820380516001836020036101000a031916815260200191505b5086810382528951815289516020918201918b019080838360005b838110156104aa578181015183820152602001610492565b50505050905090810190601f1680156104d75780820380516001836020036101000a031916815260200191505b509e50505050505050505050505050505060405180910390f35b3480156104fd57600080fd5b506100ac6004803603608081101561051457600080fd5b8135919081019060408101602082013564010000000081111561053657600080fd5b82018360208201111561054857600080fd5b8035906020019184600183028401116401000000008311171561056a57600080fd5b91908080601f01602080910402602001604051908101604052809392919081815260200183838082843760009201919091525092959493602081019350359150506401000000008111156105bd57600080fd5b8201836020820111156105cf57600080fd5b803590602001918460018302840111640100000000831117156105f157600080fd5b91908080601f016020809104026020016040519081016040528093929190818152602001838380828437600092019190915250929550509135925061110e915050565b34801561064057600080fd5b506100ac6004803603604081101561065757600080fd5b5080359060200135611629565b61066c611990565b6000838152600160208181526040928390208351610120810185528154815281840180548651600296821615610100026000190190911695909504601f810185900485028601850190965285855290949193858401939092908301828280156107165780601f106106eb57610100808354040283529160200191610716565b820191906000526020600020905b8154815290600101906020018083116106f957829003601f168201915b5050509183525050600282810180546040805160206001841615610100026000190190931694909404601f810183900483028501830190915280845293810193908301828280156107a85780601f1061077d576101008083540402835291602001916107a8565b820191906000526020600020905b81548152906001019060200180831161078b57829003601f168201915b505050918352505060038201805460408051602060026001851615610100026000190190941693909304601f810184900484028201840190925281815293820193929183018282801561083c5780601f106108115761010080835404028352916020019161083c565b820191906000526020600020905b81548152906001019060200180831161081f57829003601f168201915b5050509183525050600482015460208083019190915260058301805460408051601f600260001961010060018716150201909416939093049283018590048502810185018252828152940193928301828280156108da5780601f106108af576101008083540402835291602001916108da565b820191906000526020600020905b8154815290600101906020018083116108bd57829003601f168201915b505050918352505060068201805460408051602060026001851615610100026000190190941693909304601f810184900484028201840190925281815293820193929183018282801561096e5780601f106109435761010080835404028352916020019161096e565b820191906000526020600020905b81548152906001019060200180831161095157829003601f168201915b5050509183525050600782015460208083019190915260089092015460409182015260e08301805186810390915260008781526001808552929020845181558484015180519596509194869491936109cb939085019201906119dd565b50604082015180516109e79160028401916020909101906119dd565b5060608201518051610a039160038401916020909101906119dd565b506080820151600482015560a08201518051610a299160058401916020909101906119dd565b5060c08201518051610a459160068401916020909101906119dd565b5060e0820151600782015561010090910151600890910155604080518581526020810185905280820183905290517f420a24f336320dcd3746baf9372bc9fd6d0fda079dce3a3651ce95b1c1762b8e9181900360600190a150505050565b60005481565b600080546001908101808355604080516101208101825282815260208082018b81528284018b9052606083018a9052608083018990528351808501855260078082527f70656e64696e67000000000000000000000000000000000000000000000000008285015260a0850191909152845180860186529081527f756e6b6e6f776e000000000000000000000000000000000000000000000000008184015260c084015260e0830187905261010083018890529386528481529190942084518155915180519293610b81939085019291909101906119dd565b5060408201518051610b9d9160028401916020909101906119dd565b5060608201518051610bb99160038401916020909101906119dd565b506080820151600482015560a08201518051610bdf9160058401916020909101906119dd565b5060c08201518051610bfb9160068401916020909101906119dd565b5060e0820151816007015561010082015181600801559050507f99df3c87726953bbd7c5bf24ef949fc3ef48619a4f4aa35fc1b1bb99f51810a66000548686868660008760405180888152602001806020018060200180602001878152602001806020018060200188815260200187815260200186810386528c818151815260200191508051906020019080838360005b83811015610ca4578181015183820152602001610c8c565b50505050905090810190601f168015610cd15780820380516001836020036101000a031916815260200191505b5086810385528b5181528b516020918201918d019080838360005b83811015610d04578181015183820152602001610cec565b50505050905090810190601f168015610d315780820380516001836020036101000a031916815260200191505b5086810384528a5181528a516020918201918c019080838360005b83811015610d64578181015183820152602001610d4c565b50505050905090810190601f168015610d915780820380516001836020036101000a031916815260200191505b509586039182905260078087527f70656e64696e670000000000000000000000000000000000000000000000000060208801526040928301909152818601527f756e6b6e6f776e00000000000000000000000000000000000000000000000000606086015251938490036080019a509298505050505050505050a15050505050565b600160208181526000928352604092839020805481840180548651600296821615610100026000190190911695909504601f81018590048502860185019096528585529094919392909190830182828015610eaf5780601f10610e8457610100808354040283529160200191610eaf565b820191906000526020600020905b815481529060010190602001808311610e9257829003601f168201915b50505060028085018054604080516020601f6000196101006001871615020190941695909504928301859004850281018501909152818152959695945090925090830182828015610f415780601f10610f1657610100808354040283529160200191610f41565b820191906000526020600020905b815481529060010190602001808311610f2457829003601f168201915b5050505060038301805460408051602060026001851615610100026000190190941693909304601f8101849004840282018401909252818152949594935090830182828015610fd15780601f10610fa657610100808354040283529160200191610fd1565b820191906000526020600020905b815481529060010190602001808311610fb457829003601f168201915b50505050600483015460058401805460408051602060026001851615610100026000190190941693909304601f810184900484028201840190925281815295969395939450908301828280156110685780601f1061103d57610100808354040283529160200191611068565b820191906000526020600020905b81548152906001019060200180831161104b57829003601f168201915b5050505060068301805460408051602060026001851615610100026000190190941693909304601f81018490048402820184019092528181529495949350908301828280156110f85780601f106110cd576101008083540402835291602001916110f8565b820191906000526020600020905b8154815290600101906020018083116110db57829003601f168201915b5050505050908060070154908060080154905089565b611116611990565b6000858152600160208181526040928390208351610120810185528154815281840180548651600296821615610100026000190190911695909504601f810185900485028601850190965285855290949193858401939092908301828280156111c05780601f10611195576101008083540402835291602001916111c0565b820191906000526020600020905b8154815290600101906020018083116111a357829003601f168201915b5050509183525050600282810180546040805160206001841615610100026000190190931694909404601f810183900483028501830190915280845293810193908301828280156112525780601f1061122757610100808354040283529160200191611252565b820191906000526020600020905b81548152906001019060200180831161123557829003601f168201915b505050918352505060038201805460408051602060026001851615610100026000190190941693909304601f81018490048402820184019092528181529382019392918301828280156112e65780601f106112bb576101008083540402835291602001916112e6565b820191906000526020600020905b8154815290600101906020018083116112c957829003601f168201915b5050509183525050600482015460208083019190915260058301805460408051601f600260001961010060018716150201909416939093049283018590048502810185018252828152940193928301828280156113845780601f1061135957610100808354040283529160200191611384565b820191906000526020600020905b81548152906001019060200180831161136757829003601f168201915b505050918352505060068201805460408051602060026001851615610100026000190190941693909304601f81018490048402820184019092528181529382019392918301828280156114185780601f106113ed57610100808354040283529160200191611418565b820191906000526020600020905b8154815290600101906020018083116113fb57829003601f168201915b5050509183525050600782015460208083019190915260089092015460409182015260a0830187905260c0830186905260e0830180518601905260008881526001808452919020835181558383015180519495508594919361147f938501929101906119dd565b506040820151805161149b9160028401916020909101906119dd565b50606082015180516114b79160038401916020909101906119dd565b506080820151600482015560a082015180516114dd9160058401916020909101906119dd565b5060c082015180516114f99160068401916020909101906119dd565b5060e0820151816007015561010082015181600801559050507f6b590af6f7aa4ae28c0481336e6420561056e6f3b4e6f47f5f77a59aea96656485858585604051808581526020018060200180602001848152602001838103835286818151815260200191508051906020019080838360005b8381101561158457818101518382015260200161156c565b50505050905090810190601f1680156115b15780820380516001836020036101000a031916815260200191505b50838103825285518152855160209182019187019080838360005b838110156115e45781810151838201526020016115cc565b50505050905090810190601f1680156116115780820380516001836020036101000a031916815260200191505b50965050505050505060405180910390a15050505050565b611631611990565b6000838152600160208181526040928390208351610120810185528154815281840180548651600296821615610100026000190190911695909504601f810185900485028601850190965285855290949193858401939092908301828280156116db5780601f106116b0576101008083540402835291602001916116db565b820191906000526020600020905b8154815290600101906020018083116116be57829003601f168201915b5050509183525050600282810180546040805160206001841615610100026000190190931694909404601f8101839004830285018301909152808452938101939083018282801561176d5780601f106117425761010080835404028352916020019161176d565b820191906000526020600020905b81548152906001019060200180831161175057829003601f168201915b505050918352505060038201805460408051602060026001851615610100026000190190941693909304601f81018490048402820184019092528181529382019392918301828280156118015780601f106117d657610100808354040283529160200191611801565b820191906000526020600020905b8154815290600101906020018083116117e457829003601f168201915b5050509183525050600482015460208083019190915260058301805460408051601f6002600019610100600187161502019094169390930492830185900485028101850182528281529401939283018282801561189f5780601f106118745761010080835404028352916020019161189f565b820191906000526020600020905b81548152906001019060200180831161188257829003601f168201915b505050918352505060068201805460408051602060026001851615610100026000190190941693909304601f81018490048402820184019092528181529382019392918301828280156119335780601f1061190857610100808354040283529160200191611933565b820191906000526020600020905b81548152906001019060200180831161191657829003601f168201915b5050509183525050600782015460208083019190915260089092015460409182015260e08301805186810190915260008781526001808552929020845181558484015180519596509194869491936109cb939085019201906119dd565b610120604051908101604052806000815260200160608152602001606081526020016060815260200160008152602001606081526020016060815260200160008152602001600081525090565b828054600181600116156101000203166002900490600052602060002090601f016020900481019282601f10611a1e57805160ff1916838001178555611a4b565b82800160010185558215611a4b579182015b82811115611a4b578251825591602001919060010190611a30565b50611a57929150611a5b565b5090565b611a7591905b80821115611a575760008155600101611a61565b9056fea165627a7a72305820b359f1c068f867b3e75e07044cfb1361626aca2e3c4f34e487f73ce2d9809c380029",
  "source": "pragma solidity ^0.5.0;\r\n\r\ncontract GoodsList {\r\n    uint public goodsCount = 0;\r\n    mapping(uint => Product) public products;\r\n\r\n    enum Category {FOOD, CLOTH, MEDICINE}\r\n    enum ShipmentType {TRUCK, RAIL, OCEAN_FREIGHT, AIR_FREIGHT }\r\n    enum ShipmentStatus {PENDING, DISPATCHED, ARRIVED}\r\n    enum Condition {DAMAGED, PERFECT, UNKNOWN}\r\n\r\n    struct Product {\r\n        uint id;\r\n        string name;\r\n        string category;\r\n        string shipment_type;\r\n        uint shipment_date;\r\n        string shipment_status;\r\n        string condition;\r\n        uint stock;\r\n        uint cost_per_item;\r\n    }\r\n\r\n    event ProductAdded(\r\n        uint id,\r\n        string name,\r\n        string category,\r\n        string shipment_type,\r\n        uint shipment_date,\r\n        string shipment_status,\r\n        string condition,\r\n        uint stock,\r\n        uint cost_per_item\r\n    );\r\n\r\n    event ProductStatusUpdated(\r\n        uint id,\r\n        string status,\r\n        string condition,\r\n        uint stock\r\n    );\r\n\r\n    event ProductStockUpdated(\r\n        uint id,\r\n        uint unit,\r\n        uint previousStock\r\n    );\r\n\r\n    constructor() public {\r\n        addProduct(\"Product 1\", \"Food\", \"Air freight\", 1641297030161, 72);\r\n    }\r\n\r\n    function addProduct(string memory _name, string memory _category, string memory _shipment_type, uint _shipment_date, uint _cost_per_item) public {\r\n        goodsCount++;\r\n        products[goodsCount] = Product(goodsCount, _name, _category, _shipment_type, _shipment_date, \"pending\", \"unknown\", 0, _cost_per_item);\r\n\r\n        emit ProductAdded(goodsCount, _name, _category, _shipment_type, _shipment_date, \"pending\", \"unknown\", 0, _cost_per_item);\r\n    }\r\n\r\n    function updateShipmentStatus(uint _id, string memory _status, string memory _condition, uint _stock) public {\r\n        Product memory _product = products[_id];\r\n        _product.shipment_status = _status;\r\n        _product.condition = _condition;\r\n        _product.stock += _stock;\r\n        products[_id] = _product;\r\n\r\n        emit ProductStatusUpdated(_id, _status, _condition, _stock);\r\n    }\r\n\r\n    function addToStock(uint _id, uint _unit) public {\r\n        Product memory _product = products[_id];\r\n        uint previousStock = _product.stock;\r\n        _product.stock = _product.stock + _unit;\r\n        products[_id] = _product;\r\n\r\n        emit ProductStockUpdated(_id, _unit, previousStock);\r\n    }\r\n\r\n    function removeFromStock(uint _id, uint _unit) public {\r\n        Product memory _product = products[_id];\r\n        uint previousStock = _product.stock;\r\n        _product.stock = _product.stock - _unit;\r\n        products[_id] = _product;\r\n\r\n        emit ProductStockUpdated(_id, _unit, previousStock);\r\n    }\r\n}",
  "sourcePath": "F:/{4_1_2014}/Design Pattern/Projects/Blockchain Good Management/contracts/GoodsList.sol",
  "compiler": {
    "name": "solc",
    "version": "0.5.0+commit.1d4f565a.Emscripten.clang"
  },
  "schemaVersion": "3.0.1",
  "updatedAt": "2022-01-04T12:38:11.995Z",
  "devdoc": {
    "methods": {}
  },
  "userdoc": {
    "methods": {}
  }
}