{
  "contractName": "GoodsList",
  "abi": [
    {
      "constant": true,
      "inputs": [],
      "name": "goodsCount",
      "outputs": [
        {
          "name": "",
          "type": "uint256"
        }
      ],
      "payable": false,
      "stateMutability": "view",
      "type": "function",
      "signature": "0x1417ff7e"
    },
    {
      "constant": true,
      "inputs": [
        {
          "name": "",
          "type": "uint256"
        }
      ],
      "name": "products",
      "outputs": [
        {
          "name": "id",
          "type": "uint256"
        },
        {
          "name": "name",
          "type": "string"
        },
        {
          "name": "category",
          "type": "string"
        },
        {
          "name": "shipment_type",
          "type": "string"
        },
        {
          "name": "shipment_date",
          "type": "uint256"
        },
        {
          "name": "shipment_status",
          "type": "string"
        },
        {
          "name": "stock",
          "type": "uint256"
        },
        {
          "name": "cost_per_item",
          "type": "uint256"
        },
        {
          "name": "last_updated_by",
          "type": "string"
        }
      ],
      "payable": false,
      "stateMutability": "view",
      "type": "function",
      "signature": "0x7acc0b20"
    },
    {
      "constant": true,
      "inputs": [
        {
          "name": "",
          "type": "uint256"
        }
      ],
      "name": "accounts",
      "outputs": [
        {
          "name": "",
          "type": "string"
        }
      ],
      "payable": false,
      "stateMutability": "view",
      "type": "function",
      "signature": "0xf2a40db8"
    },
    {
      "inputs": [],
      "payable": false,
      "stateMutability": "nonpayable",
      "type": "constructor",
      "signature": "constructor"
    },
    {
      "anonymous": false,
      "inputs": [
        {
          "indexed": false,
          "name": "id",
          "type": "uint256"
        },
        {
          "indexed": false,
          "name": "name",
          "type": "string"
        },
        {
          "indexed": false,
          "name": "category",
          "type": "string"
        },
        {
          "indexed": false,
          "name": "shipment_type",
          "type": "string"
        },
        {
          "indexed": false,
          "name": "shipment_date",
          "type": "uint256"
        },
        {
          "indexed": false,
          "name": "shipment_status",
          "type": "string"
        },
        {
          "indexed": false,
          "name": "stock",
          "type": "uint256"
        },
        {
          "indexed": false,
          "name": "cost_per_item",
          "type": "uint256"
        },
        {
          "indexed": false,
          "name": "last_updated_by",
          "type": "string"
        }
      ],
      "name": "ProductAdded",
      "type": "event",
      "signature": "0xfc7a7516e8830df1e41c47e8596d7b5e958f5b237b02278c8417f98de8f0b992"
    },
    {
      "anonymous": false,
      "inputs": [
        {
          "indexed": false,
          "name": "id",
          "type": "uint256"
        },
        {
          "indexed": false,
          "name": "status",
          "type": "string"
        },
        {
          "indexed": false,
          "name": "stock",
          "type": "uint256"
        },
        {
          "indexed": false,
          "name": "last_updated_by",
          "type": "string"
        }
      ],
      "name": "ProductStatusUpdated",
      "type": "event",
      "signature": "0x4720d81315fe0a325c66a013d273461939d3ace692000dc8f2fbee86e13b87cd"
    },
    {
      "anonymous": false,
      "inputs": [
        {
          "indexed": false,
          "name": "id",
          "type": "uint256"
        },
        {
          "indexed": false,
          "name": "unit",
          "type": "uint256"
        },
        {
          "indexed": false,
          "name": "previousStock",
          "type": "uint256"
        },
        {
          "indexed": false,
          "name": "last_updated_by",
          "type": "string"
        }
      ],
      "name": "ProductStockUpdated",
      "type": "event",
      "signature": "0x8efe5c4e7b9aa675e098087bd83288dd5ff5b9c7b8164fd85fd1a2dc98b80c88"
    },
    {
      "constant": true,
      "inputs": [
        {
          "name": "_account",
          "type": "string"
        }
      ],
      "name": "exists",
      "outputs": [
        {
          "name": "",
          "type": "bool"
        }
      ],
      "payable": false,
      "stateMutability": "view",
      "type": "function",
      "signature": "0x261a323e"
    },
    {
      "constant": true,
      "inputs": [],
      "name": "getLength",
      "outputs": [
        {
          "name": "",
          "type": "uint256"
        }
      ],
      "payable": false,
      "stateMutability": "view",
      "type": "function",
      "signature": "0xbe1c766b"
    },
    {
      "constant": false,
      "inputs": [
        {
          "name": "_name",
          "type": "string"
        },
        {
          "name": "_category",
          "type": "string"
        },
        {
          "name": "_shipment_type",
          "type": "string"
        },
        {
          "name": "_shipment_date",
          "type": "uint256"
        },
        {
          "name": "_cost_per_item",
          "type": "uint256"
        },
        {
          "name": "_last_updated_by",
          "type": "string"
        }
      ],
      "name": "addProduct",
      "outputs": [],
      "payable": false,
      "stateMutability": "nonpayable",
      "type": "function",
      "signature": "0xa08b3017"
    },
    {
      "constant": false,
      "inputs": [
        {
          "name": "_id",
          "type": "uint256"
        },
        {
          "name": "_status",
          "type": "string"
        },
        {
          "name": "_stock",
          "type": "uint256"
        },
        {
          "name": "_last_updated_by",
          "type": "string"
        }
      ],
      "name": "updateShipmentStatus",
      "outputs": [],
      "payable": false,
      "stateMutability": "nonpayable",
      "type": "function",
      "signature": "0xc8baf845"
    },
    {
      "constant": false,
      "inputs": [
        {
          "name": "_id",
          "type": "uint256"
        },
        {
          "name": "_unit",
          "type": "uint256"
        },
        {
          "name": "_last_updated_by",
          "type": "string"
        }
      ],
      "name": "addToStock",
      "outputs": [],
      "payable": false,
      "stateMutability": "nonpayable",
      "type": "function",
      "signature": "0xdfec5a73"
    },
    {
      "constant": false,
      "inputs": [
        {
          "name": "_id",
          "type": "uint256"
        },
        {
          "name": "_unit",
          "type": "uint256"
        },
        {
          "name": "_last_updated_by",
          "type": "string"
        }
      ],
      "name": "removeFromStock",
      "outputs": [],
      "payable": false,
      "stateMutability": "nonpayable",
      "type": "function",
      "signature": "0x842d4cb1"
    }
  ],
  "bytecode": "0x60806040526000805534801561001457600080fd5b50612116806100246000396000f3fe6080604052600436106100985763ffffffff7c01000000000000000000000000000000000000000000000000000000006000350416631417ff7e811461009d578063261a323e146100c45780637acc0b201461018b578063842d4cb1146103e1578063a08b3017146104a2578063be1c766b146106f6578063c8baf8451461070b578063dfec5a7314610854578063f2a40db814610913575b600080fd5b3480156100a957600080fd5b506100b26109b2565b60408051918252519081900360200190f35b3480156100d057600080fd5b50610177600480360360208110156100e757600080fd5b81019060208101813564010000000081111561010257600080fd5b82018360208201111561011457600080fd5b8035906020019184600183028401116401000000008311171561013657600080fd5b91908080601f0160208091040260200160405190810160405280939291908181526020018383808284376000920191909152509295506109b8945050505050565b604080519115158252519081900360200190f35b34801561019757600080fd5b506101b5600480360360208110156101ae57600080fd5b5035610a70565b604051808a8152602001806020018060200180602001898152602001806020018881526020018781526020018060200186810386528e818151815260200191508051906020019080838360005b8381101561021a578181015183820152602001610202565b50505050905090810190601f1680156102475780820380516001836020036101000a031916815260200191505b5086810385528d5181528d516020918201918f019080838360005b8381101561027a578181015183820152602001610262565b50505050905090810190601f1680156102a75780820380516001836020036101000a031916815260200191505b5086810384528c5181528c516020918201918e019080838360005b838110156102da5781810151838201526020016102c2565b50505050905090810190601f1680156103075780820380516001836020036101000a031916815260200191505b5086810383528a5181528a516020918201918c019080838360005b8381101561033a578181015183820152602001610322565b50505050905090810190601f1680156103675780820380516001836020036101000a031916815260200191505b50868103825287518152875160209182019189019080838360005b8381101561039a578181015183820152602001610382565b50505050905090810190601f1680156103c75780820380516001836020036101000a031916815260200191505b509e50505050505050505050505050505060405180910390f35b3480156103ed57600080fd5b506104a06004803603606081101561040457600080fd5b81359160208101359181019060608101604082013564010000000081111561042b57600080fd5b82018360208201111561043d57600080fd5b8035906020019184600183028401116401000000008311171561045f57600080fd5b91908080601f016020809104026020016040519081016040528093929190818152602001838380828437600092019190915250929550610d79945050505050565b005b3480156104ae57600080fd5b506104a0600480360360c08110156104c557600080fd5b8101906020810181356401000000008111156104e057600080fd5b8201836020820111156104f257600080fd5b8035906020019184600183028401116401000000008311171561051457600080fd5b91908080601f016020809104026020016040519081016040528093929190818152602001838380828437600092019190915250929594936020810193503591505064010000000081111561056757600080fd5b82018360208201111561057957600080fd5b8035906020019184600183028401116401000000008311171561059b57600080fd5b91908080601f01602080910402602001604051908101604052809392919081815260200183838082843760009201919091525092959493602081019350359150506401000000008111156105ee57600080fd5b82018360208201111561060057600080fd5b8035906020019184600183028401116401000000008311171561062257600080fd5b91908080601f016020809104026020016040519081016040528093929190818152602001838380828437600092019190915250929584359560208601359591945092506060810191506040013564010000000081111561068157600080fd5b82018360208201111561069357600080fd5b803590602001918460018302840111640100000000831117156106b557600080fd5b91908080601f016020809104026020016040519081016040528093929190818152602001838380828437600092019190915250929550611296945050505050565b34801561070257600080fd5b506100b261165b565b34801561071757600080fd5b506104a06004803603608081101561072e57600080fd5b8135919081019060408101602082013564010000000081111561075057600080fd5b82018360208201111561076257600080fd5b8035906020019184600183028401116401000000008311171561078457600080fd5b91908080601f016020809104026020016040519081016040528093929190818152602001838380828437600092019190915250929584359590949093506040810192506020013590506401000000008111156107df57600080fd5b8201836020820111156107f157600080fd5b8035906020019184600183028401116401000000008311171561081357600080fd5b91908080601f016020809104026020016040519081016040528093929190818152602001838380828437600092019190915250929550611662945050505050565b34801561086057600080fd5b506104a06004803603606081101561087757600080fd5b81359160208101359181019060608101604082013564010000000081111561089e57600080fd5b8201836020820111156108b057600080fd5b803590602001918460018302840111640100000000831117156108d257600080fd5b91908080601f016020809104026020016040519081016040528093929190818152602001838380828437600092019190915250929550611be2945050505050565b34801561091f57600080fd5b5061093d6004803603602081101561093657600080fd5b5035611f5e565b6040805160208082528351818301528351919283929083019185019080838360005b8381101561097757818101518382015260200161095f565b50505050905090810190601f1680156109a45780820380516001836020036101000a031916815260200191505b509250505060405180910390f35b60005481565b6000805b600254811015610a65578251602084012060028054839081106109db57fe5b906000526020600020016040518082805460018160011615610100020316600290048015610a405780601f10610a1e576101008083540402835291820191610a40565b820191906000526020600020905b815481529060010190602001808311610a2c575b505091505060405180910390201415610a5d576001915050610a6b565b6001016109bc565b50600090505b919050565b600160208181526000928352604092839020805481840180548651600296821615610100026000190190911695909504601f81018590048502860185019096528585529094919392909190830182828015610b0c5780601f10610ae157610100808354040283529160200191610b0c565b820191906000526020600020905b815481529060010190602001808311610aef57829003601f168201915b50505060028085018054604080516020601f6000196101006001871615020190941695909504928301859004850281018501909152818152959695945090925090830182828015610b9e5780601f10610b7357610100808354040283529160200191610b9e565b820191906000526020600020905b815481529060010190602001808311610b8157829003601f168201915b5050505060038301805460408051602060026001851615610100026000190190941693909304601f8101849004840282018401909252818152949594935090830182828015610c2e5780601f10610c0357610100808354040283529160200191610c2e565b820191906000526020600020905b815481529060010190602001808311610c1157829003601f168201915b50505050600483015460058401805460408051602060026001851615610100026000190190941693909304601f81018490048402820184019092528181529596939593945090830182828015610cc55780601f10610c9a57610100808354040283529160200191610cc5565b820191906000526020600020905b815481529060010190602001808311610ca857829003601f168201915b505050505090806006015490806007015490806008018054600181600116156101000203166002900480601f016020809104026020016040519081016040528092919081815260200182805460018160011615610100020316600290048015610d6f5780601f10610d4457610100808354040283529160200191610d6f565b820191906000526020600020905b815481529060010190602001808311610d5257829003601f168201915b5050505050905089565b610d81612005565b6000848152600160208181526040928390208351610120810185528154815281840180548651600296821615610100026000190190911695909504601f81018590048502860185019096528585529094919385840193909290830182828015610e2b5780601f10610e0057610100808354040283529160200191610e2b565b820191906000526020600020905b815481529060010190602001808311610e0e57829003601f168201915b5050509183525050600282810180546040805160206001841615610100026000190190931694909404601f81018390048302850183019091528084529381019390830182828015610ebd5780601f10610e9257610100808354040283529160200191610ebd565b820191906000526020600020905b815481529060010190602001808311610ea057829003601f168201915b505050918352505060038201805460408051602060026001851615610100026000190190941693909304601f8101849004840282018401909252818152938201939291830182828015610f515780601f10610f2657610100808354040283529160200191610f51565b820191906000526020600020905b815481529060010190602001808311610f3457829003601f168201915b5050509183525050600482015460208083019190915260058301805460408051601f60026000196101006001871615020190941693909304928301859004850281018501825282815294019392830182828015610fef5780601f10610fc457610100808354040283529160200191610fef565b820191906000526020600020905b815481529060010190602001808311610fd257829003601f168201915b505050505081526020016006820154815260200160078201548152602001600882018054600181600116156101000203166002900480601f0160208091040260200160405190810160405280929190818152602001828054600181600116156101000203166002900480156110a55780601f1061107a576101008083540402835291602001916110a5565b820191906000526020600020905b81548152906001019060200180831161108857829003601f168201915b5050509190925250505060c08101805185810390915261010082018490526000868152600160208181526040909220845181558285015180519596509394869491936110f5938501920190612052565b5060408201518051611111916002840191602090910190612052565b506060820151805161112d916003840191602090910190612052565b506080820151600482015560a08201518051611153916005840191602090910190612052565b5060c0820151600682015560e082015160078201556101008201518051611184916008840191602090910190612052565b50905050611191836109b8565b15156111de57600280546001810180835560009290925284516111db917f405787fa12a823e0f2b7631cc41b3ba8828b3321ca811111fa75cd3aa3bb5ace01906020870190612052565b50505b7f8efe5c4e7b9aa675e098087bd83288dd5ff5b9c7b8164fd85fd1a2dc98b80c88858583866040518085815260200184815260200183815260200180602001828103825283818151815260200191508051906020019080838360005b8381101561125257818101518382015260200161123a565b50505050905090810190601f16801561127f5780820380516001836020036101000a031916815260200191505b509550505050505060405180910390a15050505050565b600080546001908101808355604080516101208101825282815260208082018c81528284018c9052606083018b9052608083018a905283518085018552600781527f70656e64696e67000000000000000000000000000000000000000000000000008184015260a084015260c0830187905260e083018990526101008301889052938652848152919094208451815591518051929361133d93908501929190910190612052565b5060408201518051611359916002840191602090910190612052565b5060608201518051611375916003840191602090910190612052565b506080820151600482015560a0820151805161139b916005840191602090910190612052565b5060c0820151600682015560e0820151600782015561010082015180516113cc916008840191602090910190612052565b509050506113d9816109b8565b15156114265760028054600181018083556000929092528251611423917f405787fa12a823e0f2b7631cc41b3ba8828b3321ca811111fa75cd3aa3bb5ace01906020850190612052565b50505b7ffc7a7516e8830df1e41c47e8596d7b5e958f5b237b02278c8417f98de8f0b992600054878787876000888860405180898152602001806020018060200180602001888152602001806020018881526020018781526020018060200186810386528d818151815260200191508051906020019080838360005b838110156114b757818101518382015260200161149f565b50505050905090810190601f1680156114e45780820380516001836020036101000a031916815260200191505b5086810385528c5181528c516020918201918e019080838360005b838110156115175781810151838201526020016114ff565b50505050905090810190601f1680156115445780820380516001836020036101000a031916815260200191505b5086810384528b5181528b516020918201918d019080838360005b8381101561157757818101518382015260200161155f565b50505050905090810190601f1680156115a45780820380516001836020036101000a031916815260200191505b50868103835260078152602001807f70656e64696e6700000000000000000000000000000000000000000000000000815250602001868103825287818151815260200191508051906020019080838360005b8381101561160e5781810151838201526020016115f6565b50505050905090810190601f16801561163b5780820380516001836020036101000a031916815260200191505b509d505050505050505050505050505060405180910390a1505050505050565b6002545b90565b61166a612005565b6000858152600160208181526040928390208351610120810185528154815281840180548651600296821615610100026000190190911695909504601f810185900485028601850190965285855290949193858401939092908301828280156117145780601f106116e957610100808354040283529160200191611714565b820191906000526020600020905b8154815290600101906020018083116116f757829003601f168201915b5050509183525050600282810180546040805160206001841615610100026000190190931694909404601f810183900483028501830190915280845293810193908301828280156117a65780601f1061177b576101008083540402835291602001916117a6565b820191906000526020600020905b81548152906001019060200180831161178957829003601f168201915b505050918352505060038201805460408051602060026001851615610100026000190190941693909304601f810184900484028201840190925281815293820193929183018282801561183a5780601f1061180f5761010080835404028352916020019161183a565b820191906000526020600020905b81548152906001019060200180831161181d57829003601f168201915b5050509183525050600482015460208083019190915260058301805460408051601f600260001961010060018716150201909416939093049283018590048502810185018252828152940193928301828280156118d85780601f106118ad576101008083540402835291602001916118d8565b820191906000526020600020905b8154815290600101906020018083116118bb57829003601f168201915b505050505081526020016006820154815260200160078201548152602001600882018054600181600116156101000203166002900480601f01602080910402602001604051908101604052809291908181526020018280546001816001161561010002031660029004801561198e5780601f106119635761010080835404028352916020019161198e565b820191906000526020600020905b81548152906001019060200180831161197157829003601f168201915b5050509190925250505060a0810185905260c081018051850190526101008101839052600086815260016020818152604090922083518155828401518051949550859491936119e293850192910190612052565b50604082015180516119fe916002840191602090910190612052565b5060608201518051611a1a916003840191602090910190612052565b506080820151600482015560a08201518051611a40916005840191602090910190612052565b5060c0820151600682015560e082015160078201556101008201518051611a71916008840191602090910190612052565b50905050611a7e826109b8565b1515611acb5760028054600181018083556000929092528351611ac8917f405787fa12a823e0f2b7631cc41b3ba8828b3321ca811111fa75cd3aa3bb5ace01906020860190612052565b50505b7f4720d81315fe0a325c66a013d273461939d3ace692000dc8f2fbee86e13b87cd85858585604051808581526020018060200184815260200180602001838103835286818151815260200191508051906020019080838360005b83811015611b3d578181015183820152602001611b25565b50505050905090810190601f168015611b6a5780820380516001836020036101000a031916815260200191505b50838103825284518152845160209182019186019080838360005b83811015611b9d578181015183820152602001611b85565b50505050905090810190601f168015611bca5780820380516001836020036101000a031916815260200191505b50965050505050505060405180910390a15050505050565b611bea612005565b6000848152600160208181526040928390208351610120810185528154815281840180548651600296821615610100026000190190911695909504601f81018590048502860185019096528585529094919385840193909290830182828015611c945780601f10611c6957610100808354040283529160200191611c94565b820191906000526020600020905b815481529060010190602001808311611c7757829003601f168201915b5050509183525050600282810180546040805160206001841615610100026000190190931694909404601f81018390048302850183019091528084529381019390830182828015611d265780601f10611cfb57610100808354040283529160200191611d26565b820191906000526020600020905b815481529060010190602001808311611d0957829003601f168201915b505050918352505060038201805460408051602060026001851615610100026000190190941693909304601f8101849004840282018401909252818152938201939291830182828015611dba5780601f10611d8f57610100808354040283529160200191611dba565b820191906000526020600020905b815481529060010190602001808311611d9d57829003601f168201915b5050509183525050600482015460208083019190915260058301805460408051601f60026000196101006001871615020190941693909304928301859004850281018501825282815294019392830182828015611e585780601f10611e2d57610100808354040283529160200191611e58565b820191906000526020600020905b815481529060010190602001808311611e3b57829003601f168201915b505050505081526020016006820154815260200160078201548152602001600882018054600181600116156101000203166002900480601f016020809104026020016040519081016040528092919081815260200182805460018160011615610100020316600290048015611f0e5780601f10611ee357610100808354040283529160200191611f0e565b820191906000526020600020905b815481529060010190602001808311611ef157829003601f168201915b5050509190925250505060c08101805185810190915261010082018490526000868152600160208181526040909220845181558285015180519596509394869491936110f5938501920190612052565b6002805482908110611f6c57fe5b600091825260209182902001805460408051601f6002600019610100600187161502019094169390930492830185900485028101850190915281815293509091830182828015611ffd5780601f10611fd257610100808354040283529160200191611ffd565b820191906000526020600020905b815481529060010190602001808311611fe057829003601f168201915b505050505081565b610120604051908101604052806000815260200160608152602001606081526020016060815260200160008152602001606081526020016000815260200160008152602001606081525090565b828054600181600116156101000203166002900490600052602060002090601f016020900481019282601f1061209357805160ff19168380011785556120c0565b828001600101855582156120c0579182015b828111156120c05782518255916020019190600101906120a5565b506120cc9291506120d0565b5090565b61165f91905b808211156120cc57600081556001016120d656fea165627a7a72305820511bd4c35dc6b3e0428c18dde6b7138bde4ffdc9c18c415c30a7d39109186ffe0029",
  "source": "pragma solidity ^0.5.0;\r\n\r\ncontract GoodsList {\r\n    uint public goodsCount = 0;\r\n    mapping(uint => Product) public products;\r\n    string[] public accounts;\r\n\r\n    enum Category {FOOD, CLOTH, MEDICINE}\r\n    enum ShipmentType {TRUCK, RAIL, OCEAN_FREIGHT, AIR_FREIGHT }\r\n    enum ShipmentStatus {PENDING, DISPATCHED, ARRIVED}\r\n    enum Condition {DAMAGED, PERFECT, UNKNOWN}\r\n\r\n    struct Product {\r\n        uint id;\r\n        string name;\r\n        string category;\r\n        string shipment_type;\r\n        uint shipment_date;\r\n        string shipment_status;\r\n        uint stock;\r\n        uint cost_per_item;\r\n        string last_updated_by;\r\n    }\r\n\r\n    event ProductAdded(\r\n        uint id,\r\n        string name,\r\n        string category,\r\n        string shipment_type,\r\n        uint shipment_date,\r\n        string shipment_status,\r\n        uint stock,\r\n        uint cost_per_item,\r\n        string last_updated_by\r\n    );\r\n\r\n    event ProductStatusUpdated(\r\n        uint id,\r\n        string status,\r\n        uint stock,\r\n        string last_updated_by\r\n    );\r\n\r\n    event ProductStockUpdated(\r\n        uint id,\r\n        uint unit,\r\n        uint previousStock,\r\n        string last_updated_by\r\n    );\r\n\r\n    constructor() public {\r\n        // addProduct(\"Product 1\", \"Food\", \"Air freight\", 1641297030161, 72);\r\n    }\r\n\r\n    function exists (string memory _account) public view returns (bool){\r\n        for (uint i; i< accounts.length;i++){\r\n            if (keccak256(bytes(accounts[i])) == keccak256(bytes(_account))) {\r\n                return true;\r\n            }\r\n        }\r\n        return false;\r\n    }\r\n\r\n    function getLength() public view returns (uint) {\r\n        return accounts.length;\r\n    }\r\n\r\n    function addProduct(string memory _name, string memory _category, string memory _shipment_type, uint _shipment_date, uint _cost_per_item, string memory _last_updated_by) public {\r\n        goodsCount++;\r\n        products[goodsCount] = Product(goodsCount, _name, _category, _shipment_type, _shipment_date, \"pending\", 0, _cost_per_item, _last_updated_by);\r\n        \r\n        if (!exists(_last_updated_by)) {\r\n            accounts.push(_last_updated_by);\r\n        }\r\n\r\n        emit ProductAdded(goodsCount, _name, _category, _shipment_type, _shipment_date, \"pending\", 0, _cost_per_item, _last_updated_by);\r\n    }\r\n\r\n    function updateShipmentStatus(uint _id, string memory _status, uint _stock, string memory _last_updated_by) public {\r\n        Product memory _product = products[_id];\r\n        _product.shipment_status = _status;\r\n        _product.stock += _stock;\r\n        _product.last_updated_by = _last_updated_by;\r\n        products[_id] = _product;\r\n        if (!exists(_last_updated_by)) {\r\n            accounts.push(_last_updated_by);\r\n        }\r\n        emit ProductStatusUpdated(_id, _status, _stock, _last_updated_by);\r\n    }\r\n\r\n    function addToStock(uint _id, uint _unit, string memory _last_updated_by) public {\r\n        Product memory _product = products[_id];\r\n        uint previousStock = _product.stock;\r\n        _product.stock = _product.stock + _unit;\r\n        _product.last_updated_by = _last_updated_by;\r\n        products[_id] = _product;\r\n\r\n        if (!exists(_last_updated_by)) {\r\n            accounts.push(_last_updated_by);\r\n        }\r\n\r\n        emit ProductStockUpdated(_id, _unit, previousStock, _last_updated_by);\r\n    }\r\n\r\n    function removeFromStock(uint _id, uint _unit, string memory _last_updated_by) public {\r\n        Product memory _product = products[_id];\r\n        uint previousStock = _product.stock;\r\n        _product.stock = _product.stock - _unit;\r\n        _product.last_updated_by = _last_updated_by;\r\n        products[_id] = _product;\r\n\r\n        if (!exists(_last_updated_by)) {\r\n            accounts.push(_last_updated_by);\r\n        }\r\n\r\n        emit ProductStockUpdated(_id, _unit, previousStock, _last_updated_by);\r\n    }\r\n}",
  "sourcePath": "F:/{4_1_2014}/Design Pattern/Projects/Blockchain Good Management/contracts/GoodsList.sol",
  "compiler": {
    "name": "solc",
    "version": "0.5.0+commit.1d4f565a.Emscripten.clang"
  },
  "schemaVersion": "3.0.1",
  "updatedAt": "2022-01-16T08:43:36.486Z",
  "devdoc": {
    "methods": {}
  },
  "userdoc": {
    "methods": {}
  }
}